{"abi":[{"inputs":[{"components":[{"components":[{"internalType":"bool","name":"a","type":"bool"}],"internalType":"struct Inner","name":"inner","type":"tuple"}],"internalType":"struct Stuff","name":"stuff","type":"tuple"}],"name":"greet","outputs":[{"components":[{"components":[{"internalType":"bool","name":"a","type":"bool"}],"internalType":"struct Inner","name":"inner","type":"tuple"}],"internalType":"struct Stuff","name":"","type":"tuple"}],"stateMutability":"pure","type":"function"}],"bytecode":{"object":"0x608060405234801561001057600080fd5b50610314806100206000396000f3fe608060405234801561001057600080fd5b506004361061002b5760003560e01c80638ed3bc5614610030575b600080fd5b61004a600480360381019061004591906100e1565b610060565b6040516100579190610161565b60405180910390f35b610068610080565b8180360381019061007991906102b1565b9050919050565b6040518060200160405280610093610099565b81525090565b60405180602001604052806000151581525090565b6000604051905090565b600080fd5b600080fd5b6000602082840312156100d8576100d76100bd565b5b81905092915050565b6000602082840312156100f7576100f66100b8565b5b6000610105848285016100c2565b91505092915050565b60008115159050919050565b6101238161010e565b82525050565b60208201600082015161013f600085018261011a565b50505050565b60208201600082015161015b6000850182610129565b50505050565b60006020820190506101766000830184610145565b92915050565b600080fd5b6000601f19601f8301169050919050565b7f4e487b7100000000000000000000000000000000000000000000000000000000600052604160045260246000fd5b6101ca82610181565b810181811067ffffffffffffffff821117156101e9576101e8610192565b5b80604052505050565b60006101fc6100ae565b905061020882826101c1565b919050565b6102168161010e565b811461022157600080fd5b50565b6000813590506102338161020d565b92915050565b60006020828403121561024f5761024e61017c565b5b61025960206101f2565b9050600061026984828501610224565b60008301525092915050565b60006020828403121561028b5761028a61017c565b5b61029560206101f2565b905060006102a584828501610239565b60008301525092915050565b6000602082840312156102c7576102c66100b8565b5b60006102d584828501610275565b9150509291505056fea26469706673582212201699ffec341a1a10cb17bbc29ad8639618d7ff9191b8f4e7fe0d9ad70336938a64736f6c63430008140033","linkReferences":{}},"methodIdentifiers":{"greet(((bool)))":"8ed3bc56"},"id":0}